:1000000012C02CC02BC02AC029C028C027C026C0BF
:1000100025C024C023C022C021C020C01FC01EC0D4
:100020001DC01CC01BC011241FBECFE5D4E0DEBF25
:10003000CDBF10E0A0E6B0E0E8EEF8E002C0059029
:100040000D92AA36B107D9F710E0AAE6B0E001C0D8
:100050001D92AF36B107E1F7ECD044C4D1CF66238F
:1000600011F0909A01C0909891988C9A8D9A8E9ADE
:100070008F9A979896989598949887FD979A86FD69
:10008000969A85FD959A84FD949A929A00C09298CA
:10009000979896989598949883FD979A82FD969A4A
:1000A00081FD959A80FD949A929A00C09298949AB4
:1000B000959A969A979A0895882311F0909A01C07C
:1000C0009098919A8C988D988E988F98929A00C05B
:1000D000849B02C080E101C080E08599806286999E
:1000E000806487998068929800C0929A00C0849931
:1000F00081608599826086998460879988609298EA
:10010000089580E0D9DF87FDFCCF00C080E0D4DF18
:1001100008951F93182FF5DF812F60E0A0DF1F9156
:1001200008951F93182FEDDF812F61E098DF1F9155
:100130000895662311F4805801C08054EADF0895C1
:10014000E0DF90E0089581E0E4DF089582E0E1DF00
:1001500008951F93182FD5DF1A3041F4803410F022
:1001600080E001C080E48058D4DF03C0812F61E0CB
:1001700076DF1F910895CF93DF93EC0101C0E9DF93
:1001800089918823E1F7DF91CF910895CF93DF9391
:10019000EC0101C0DEDFFE01219684918823D1F7B6
:1001A000DF91CF9108951F93182F889A899A8A9A80
:1001B0008C9A8D9A8E9A8F9A80EA9FE00197F1F738
:1001C000959A949A929A00C0929880EE94E0019742
:1001D000F1F7929A00C0929880E190E0FC0131978B
:1001E000F1F7929A00C09298FC013197F1F7949838
:1001F000929A00C092980197F1F788E28ADF88E02E
:1002000088DFA1DF86E085DF812F83DF1F910895DE
:1002100097B18770892B87B9369A349BFECF349A71
:1002200024B135B1C901089580E487B98EE886B953
:1002300008959F92AF92BF92CF92DF92EF92FF927A
:100240000F931F93CF93DF938CE0ADDF7CDF80E6CD
:1002500090E091DF80E487B98EE886B98FEF87BBA5
:100260000AE610E046E6E42E40E0F42E992493944A
:1002700033E0A32E27E0B22E9FE0C92E8FE1D82EC7
:1002800084E060E056DF80E0C3DFEC0100D000D006
:1002900000D0EDB7FEB73196ADB7BEB712961C933E
:1002A0000E931197F382E28262E070E02ED07583A4
:1002B000648352D08DB79EB706960FB6F8949EBF52
:1002C0000FBE8DBFC80157DFCC33D10508F498BAF3
:1002D000CE01CC970A9708F4A8BACE018654904074
:1002E0000A9708F4B8BACE01805590400A9708F4EE
:1002F000C8BACE018A5590400A9708F4D8BAC436D5
:10030000D1050CF4BDCF18BABBCF97FB092E072639
:100310000AD077FD04D00CD006D000201AF47095D6
:1003200061957F4F0895F6F7909581959F4F0895B9
:10033000AA1BBB1B51E107C0AA1FBB1FA617B7070B
:1003400010F0A61BB70B881F991F5A95A9F7809527
:100350009095BC01CD010895AEE0B0E0E1EBF1E095
:1003600098C20D891E8986E08C831A8309838FEFDA
:100370009FE79E838D839E01275E3F4FCE010196AE
:100380006F89788DA90109D02F813885020F131F3D
:10039000F80110822E96E4E098C2ABE0B0E0E2ED06
:1003A000F1E069C23C012B015A01FC01178216825F
:1003B000838181FD03C06FEF7FEFB9C19AE0892E81
:1003C0001E010894211C311CF3012381F20123FD3D
:1003D000859123FF81912F01882309F4A5C18532DE
:1003E00039F423FD859123FF81912F01853221F47A
:1003F00090E0B301B6D1E8CF982FFF24EE249924E2
:10040000FFE1FF15D0F09B3269F09C3228F4903266
:1004100059F0933291F40EC09D3249F0903369F453
:1004200041E024C052E0F52A84E0F82A28C098E090
:10043000F92A25C0E0E1FE2A22C0F7FC29C0892F55
:1004400080538A3070F4F6FE05C0989C902C1124DD
:10045000980E15C0E89CE02C1124E80EF0E2FF2A6B
:100460000EC09E3229F4F6FC5FC140E4F42A07C0B6
:100470009C3619F450E8F52A02C0983649F4F20186
:1004800023FD959123FF91912F01992309F0B8CF76
:10049000892F8554833018F08052833038F444E03B
:1004A00050E0A40EB51E5FE359830FC0933631F0C0
:1004B000933779F0933509F052C01FC0F501808160
:1004C000898342E050E0A40EB51E610101E010E016
:1004D00011C0F501C080D180F6FC03C06FEF7FEF43
:1004E00002C0692D70E042E050E0A40EB51EC601C6
:1004F0002DD18C015FE7F52213C0F501C080D180BA
:10050000F6FC03C06FEF7FEF02C0692D70E042E0A0
:1005100050E0A40EB51EC6010ED18C0150E8F52A9C
:10052000F3FE06C018C080E290E0B3011AD1EA944D
:100530008E2D90E008171907B0F30DC0F601F7FCF7
:100540008591F7FE81916F0190E0B3010AD1E1102E
:10055000EA94015010400115110581F7E2C094366C
:1005600011F0993661F5F7FE08C0F501208131815F
:100570004281538184E090E00AC0F501808191813D
:100580009C01442737FD4095542F82E090E0A80E4F
:10059000B91E9FE6F92257FF09C050954095309546
:1005A00021953F4F4F4F5F4FE0E8FE2ACA01B90146
:1005B000A1012AE030E001D1D82ED2183FC09537F2
:1005C00029F41F2D1F7E2AE030E01DC01F2D197F4A
:1005D0009F3661F0903720F4983509F0A5C00FC020
:1005E000903739F0983709F09FC004C028E030E018
:1005F0000AC0106114FD146020E130E004C014FD55
:10060000166020E132E017FF08C0F50160817181BA
:100610008281938144E050E008C0F501808191819E
:10062000BC0180E090E042E050E0A40EB51EA101C4
:10063000C4D0D82ED2188FE7F82EF122F6FE0BC0C8
:100640005EEFF522D91438F4F4FE07C0F2FC05C0C1
:100650008FEEF82202C01D2D01C0192DF4FE0DC031
:10066000FE01ED0DF11D8081803319F499EEF92220
:1006700008C01F5FF2FE05C003C08F2D867809F009
:100680001F5F0F2DF3FC13C0F0FE0EC01E1510F0FF
:100690009D2C0AC09D2C9E0C911A1E2D05C080E237
:1006A00090E0B3015ED01F5F1E15C8F304C01E1595
:1006B00010F4E11A01C0EE2404FF0EC080E390E0C4
:1006C000B3014FD002FF1BC001FD03C088E790E0DB
:1006D0000EC088E590E00BC0802F867881F001FF86
:1006E00002C08BE201C080E2F7FC8DE290E0B30132
:1006F00038D005C080E390E0B30133D09A94D91488
:10070000C8F3DA94F101ED0DF11D808190E0B301A1
:1007100028D0DD20B1F705C080E290E0B30121D000
:10072000EA94EE20C9F750CEF30166817781CB01C0
:100730002B96E2E1BCC0FC010590615070400110B5
:10074000D8F7809590958E0F9F1F0895FC016150FA
:10075000704001900110D8F7809590958E0F9F1FE3
:1007600008950F931F93CF93DF938C01EB018B813F
:1007700081FF1BC082FF0DC02E813F818C819D8136
:100780002817390764F4E881F9810193F983E88334
:1007900006C0E885F985802F0995892B31F48E8173
:1007A0009F8101969F838E8302C00FEF1FEFC801C8
:1007B000DF91CF911F910F910895FA01AA27283058
:1007C00051F1203181F1E8946F936E7F6E5F7F4F1E
:1007D0008F4F9F4FAF4FB1E03ED0B4E03CD0670F9A
:1007E000781F891F9A1FA11D680F791F8A1F911DED
:1007F000A11D6A0F711D811D911DA11D20D009F43D
:1008000068943F912AE0269F11243019305D31937E
:10081000DEF6CF010895462F4770405D4193B3E067
:100820000FD0C9F7F6CF462F4F70405D4A3318F00E
:10083000495D31FD4052419302D0A9F7EACFB4E0BF
:10084000A6959795879577956795BA95C9F7009777
:100850006105710508959B01AC010A2E0694579518
:10086000479537952795BA95C9F7620F731F841F6F
:10087000951FA01D08952F923F924F925F926F9205
:100880007F928F929F92AF92BF92CF92DF92EF9220
:10089000FF920F931F93CF93DF93CDB7DEB7CA1BA1
:1008A000DB0B0FB6F894DEBF0FBECDBF09942A88CC
:1008B000398848885F846E847D848C849B84AA8474
:1008C000B984C884DF80EE80FD800C811B81AA8101
:1008D000B981CE0FD11D0FB6F894DEBF0FBECDBFCC
:0808E000ED010895F894FFCF2B
:0A08E80054454D503A0025346400D9
:00000001FF
